{
  "contractName": "ArbiLocker",
  "abi": [
    {
      "inputs": [
        {
          "internalType": "address",
          "name": "",
          "type": "address"
        },
        {
          "internalType": "uint256",
          "name": "",
          "type": "uint256"
        }
      ],
      "name": "addressToIds",
      "outputs": [
        {
          "internalType": "uint256",
          "name": "",
          "type": "uint256"
        }
      ],
      "stateMutability": "view",
      "type": "function"
    },
    {
      "inputs": [
        {
          "internalType": "uint256",
          "name": "",
          "type": "uint256"
        }
      ],
      "name": "idToSafe",
      "outputs": [
        {
          "internalType": "address",
          "name": "owner",
          "type": "address"
        },
        {
          "internalType": "address",
          "name": "token",
          "type": "address"
        },
        {
          "internalType": "uint256",
          "name": "amount",
          "type": "uint256"
        },
        {
          "internalType": "uint256",
          "name": "unlock",
          "type": "uint256"
        },
        {
          "internalType": "bool",
          "name": "active",
          "type": "bool"
        }
      ],
      "stateMutability": "view",
      "type": "function"
    },
    {
      "inputs": [
        {
          "internalType": "address",
          "name": "user",
          "type": "address"
        },
        {
          "internalType": "address",
          "name": "token",
          "type": "address"
        },
        {
          "internalType": "uint256",
          "name": "amount",
          "type": "uint256"
        },
        {
          "internalType": "uint256",
          "name": "length",
          "type": "uint256"
        }
      ],
      "name": "deposit",
      "outputs": [
        {
          "internalType": "uint256",
          "name": "id",
          "type": "uint256"
        }
      ],
      "stateMutability": "nonpayable",
      "type": "function"
    },
    {
      "inputs": [
        {
          "internalType": "uint256",
          "name": "id",
          "type": "uint256"
        }
      ],
      "name": "unlock",
      "outputs": [],
      "stateMutability": "nonpayable",
      "type": "function"
    },
    {
      "inputs": [
        {
          "internalType": "uint256",
          "name": "id",
          "type": "uint256"
        }
      ],
      "name": "getSafe",
      "outputs": [
        {
          "components": [
            {
              "internalType": "address",
              "name": "owner",
              "type": "address"
            },
            {
              "internalType": "address",
              "name": "token",
              "type": "address"
            },
            {
              "internalType": "uint256",
              "name": "amount",
              "type": "uint256"
            },
            {
              "internalType": "uint256",
              "name": "unlock",
              "type": "uint256"
            },
            {
              "internalType": "bool",
              "name": "active",
              "type": "bool"
            }
          ],
          "internalType": "struct ArbiLocker.Safe",
          "name": "",
          "type": "tuple"
        }
      ],
      "stateMutability": "view",
      "type": "function"
    },
    {
      "inputs": [
        {
          "internalType": "address",
          "name": "user",
          "type": "address"
        }
      ],
      "name": "getIds",
      "outputs": [
        {
          "internalType": "uint256[]",
          "name": "",
          "type": "uint256[]"
        }
      ],
      "stateMutability": "view",
      "type": "function"
    }
  ],
  "bytecode": "0x608060405234801561001057600080fd5b5060016000819055506112f1806100286000396000f3fe608060405234801561001057600080fd5b50600436106100625760003560e01c806320e8c565146100675780632671b0d8146100975780636198e339146100c757806383d0f8d2146100e3578063b38f95ac14610113578063be634ad514610147575b600080fd5b610081600480360381019061007c9190610b61565b610177565b60405161008e9190610bd7565b60405180910390f35b6100b160048036038101906100ac9190610bf2565b6104c5565b6040516100be9190610cdd565b60405180910390f35b6100e160048036038101906100dc9190610cff565b610624565b005b6100fd60048036038101906100f89190610cff565b610850565b60405161010a9190610dbe565b60405180910390f35b61012d60048036038101906101289190610cff565b61095e565b60405161013e959493929190610df7565b60405180910390f35b610161600480360381019061015c9190610e4a565b6109e1565b60405161016e9190610bd7565b60405180910390f35b6000610181610a12565b6103e883116101c5576040517f08c379a00000000000000000000000000000000000000000000000000000000081526004016101bc90610ee7565b60405180910390fd5b6000821180156101d6575061271082105b610215576040517f08c379a000000000000000000000000000000000000000000000000000000000815260040161020c90610f53565b60405180910390fd5b60008490508073ffffffffffffffffffffffffffffffffffffffff166323b872dd3330876040518463ffffffff1660e01b815260040161025793929190610f73565b6020604051808303816000875af1158015610276573d6000803e3d6000fd5b505050506040513d601f19601f8201168201806040525081019061029a9190610fd6565b506102a3610a6b565b6000600154905087826000019073ffffffffffffffffffffffffffffffffffffffff16908173ffffffffffffffffffffffffffffffffffffffff168152505086826020019073ffffffffffffffffffffffffffffffffffffffff16908173ffffffffffffffffffffffffffffffffffffffff16815250508582604001818152505062015180856103339190611032565b4261033e9190611074565b8260600181815250506001826080019015159081151581525050600260003373ffffffffffffffffffffffffffffffffffffffff1673ffffffffffffffffffffffffffffffffffffffff168152602001908152602001600020819080600181540180825580915050600190039060005260206000200160009091909190915055816003600083815260200190815260200160002060008201518160000160006101000a81548173ffffffffffffffffffffffffffffffffffffffff021916908373ffffffffffffffffffffffffffffffffffffffff16021790555060208201518160010160006101000a81548173ffffffffffffffffffffffffffffffffffffffff021916908373ffffffffffffffffffffffffffffffffffffffff160217905550604082015181600201556060820151816003015560808201518160040160006101000a81548160ff021916908315150217905550905050600160008154809291906104aa906110a8565b91905055508093505050506104bd610a61565b949350505050565b60606000600260008473ffffffffffffffffffffffffffffffffffffffff1673ffffffffffffffffffffffffffffffffffffffff16815260200190815260200160002080549050905060008167ffffffffffffffff81111561052a576105296110f0565b5b6040519080825280602002602001820160405280156105585781602001602082028036833780820191505090505b5090506000805b838210156106185760006003600083815260200190815260200160002060000160009054906101000a900473ffffffffffffffffffffffffffffffffffffffff1690503373ffffffffffffffffffffffffffffffffffffffff168173ffffffffffffffffffffffffffffffffffffffff160361060457818484815181106105e9576105e861111f565b5b6020026020010181815250508280610600906110a8565b9350505b818061060f906110a8565b9250505061055f565b82945050505050919050565b61062c610a12565b3373ffffffffffffffffffffffffffffffffffffffff166003600083815260200190815260200160002060000160009054906101000a900473ffffffffffffffffffffffffffffffffffffffff1673ffffffffffffffffffffffffffffffffffffffff16146106d0576040517f08c379a00000000000000000000000000000000000000000000000000000000081526004016106c79061119a565b60405180910390fd5b4260036000838152602001908152602001600020600301541115610729576040517f08c379a000000000000000000000000000000000000000000000000000000000815260040161072090611206565b60405180910390fd5b60006003600083815260200190815260200160002060010160009054906101000a900473ffffffffffffffffffffffffffffffffffffffff1690508073ffffffffffffffffffffffffffffffffffffffff1663a9059cbb3360036000868152602001908152602001600020600201546040518363ffffffff1660e01b81526004016107b5929190611226565b6020604051808303816000875af11580156107d4573d6000803e3d6000fd5b505050506040513d601f19601f820116820180604052508101906107f89190610fd6565b506000600360008481526020019081526020016000206002018190555060006003600084815260200190815260200160002060040160006101000a81548160ff0219169083151502179055505061084d610a61565b50565b610858610a6b565b6000600360008481526020019081526020016000206040518060a00160405290816000820160009054906101000a900473ffffffffffffffffffffffffffffffffffffffff1673ffffffffffffffffffffffffffffffffffffffff1673ffffffffffffffffffffffffffffffffffffffff1681526020016001820160009054906101000a900473ffffffffffffffffffffffffffffffffffffffff1673ffffffffffffffffffffffffffffffffffffffff1673ffffffffffffffffffffffffffffffffffffffff16815260200160028201548152602001600382015481526020016004820160009054906101000a900460ff161515151581525050905080915050919050565b60036020528060005260406000206000915090508060000160009054906101000a900473ffffffffffffffffffffffffffffffffffffffff16908060010160009054906101000a900473ffffffffffffffffffffffffffffffffffffffff16908060020154908060030154908060040160009054906101000a900460ff16905085565b600260205281600052604060002081815481106109fd57600080fd5b90600052602060002001600091509150505481565b600260005403610a57576040517f08c379a0000000000000000000000000000000000000000000000000000000008152600401610a4e9061129b565b60405180910390fd5b6002600081905550565b6001600081905550565b6040518060a00160405280600073ffffffffffffffffffffffffffffffffffffffff168152602001600073ffffffffffffffffffffffffffffffffffffffff16815260200160008152602001600081526020016000151581525090565b600080fd5b600073ffffffffffffffffffffffffffffffffffffffff82169050919050565b6000610af882610acd565b9050919050565b610b0881610aed565b8114610b1357600080fd5b50565b600081359050610b2581610aff565b92915050565b6000819050919050565b610b3e81610b2b565b8114610b4957600080fd5b50565b600081359050610b5b81610b35565b92915050565b60008060008060808587031215610b7b57610b7a610ac8565b5b6000610b8987828801610b16565b9450506020610b9a87828801610b16565b9350506040610bab87828801610b4c565b9250506060610bbc87828801610b4c565b91505092959194509250565b610bd181610b2b565b82525050565b6000602082019050610bec6000830184610bc8565b92915050565b600060208284031215610c0857610c07610ac8565b5b6000610c1684828501610b16565b91505092915050565b600081519050919050565b600082825260208201905092915050565b6000819050602082019050919050565b610c5481610b2b565b82525050565b6000610c668383610c4b565b60208301905092915050565b6000602082019050919050565b6000610c8a82610c1f565b610c948185610c2a565b9350610c9f83610c3b565b8060005b83811015610cd0578151610cb78882610c5a565b9750610cc283610c72565b925050600181019050610ca3565b5085935050505092915050565b60006020820190508181036000830152610cf78184610c7f565b905092915050565b600060208284031215610d1557610d14610ac8565b5b6000610d2384828501610b4c565b91505092915050565b610d3581610aed565b82525050565b60008115159050919050565b610d5081610d3b565b82525050565b60a082016000820151610d6c6000850182610d2c565b506020820151610d7f6020850182610d2c565b506040820151610d926040850182610c4b565b506060820151610da56060850182610c4b565b506080820151610db86080850182610d47565b50505050565b600060a082019050610dd36000830184610d56565b92915050565b610de281610aed565b82525050565b610df181610d3b565b82525050565b600060a082019050610e0c6000830188610dd9565b610e196020830187610dd9565b610e266040830186610bc8565b610e336060830185610bc8565b610e406080830184610de8565b9695505050505050565b60008060408385031215610e6157610e60610ac8565b5b6000610e6f85828601610b16565b9250506020610e8085828601610b4c565b9150509250929050565b600082825260208201905092915050565b7f4465706f73697420746f6f206c6f770000000000000000000000000000000000600082015250565b6000610ed1600f83610e8a565b9150610edc82610e9b565b602082019050919050565b60006020820190508181036000830152610f0081610ec4565b9050919050565b7f393939392064617973206d6178206c6f636b0000000000000000000000000000600082015250565b6000610f3d601283610e8a565b9150610f4882610f07565b602082019050919050565b60006020820190508181036000830152610f6c81610f30565b9050919050565b6000606082019050610f886000830186610dd9565b610f956020830185610dd9565b610fa26040830184610bc8565b949350505050565b610fb381610d3b565b8114610fbe57600080fd5b50565b600081519050610fd081610faa565b92915050565b600060208284031215610fec57610feb610ac8565b5b6000610ffa84828501610fc1565b91505092915050565b7f4e487b7100000000000000000000000000000000000000000000000000000000600052601160045260246000fd5b600061103d82610b2b565b915061104883610b2b565b925082820261105681610b2b565b9150828204841483151761106d5761106c611003565b5b5092915050565b600061107f82610b2b565b915061108a83610b2b565b92508282019050808211156110a2576110a1611003565b5b92915050565b60006110b382610b2b565b91507fffffffffffffffffffffffffffffffffffffffffffffffffffffffffffffffff82036110e5576110e4611003565b5b600182019050919050565b7f4e487b7100000000000000000000000000000000000000000000000000000000600052604160045260246000fd5b7f4e487b7100000000000000000000000000000000000000000000000000000000600052603260045260246000fd5b7f4e6f7420746865206f776e6572206f6620746869732073616665000000000000600082015250565b6000611184601a83610e8a565b915061118f8261114e565b602082019050919050565b600060208201905081810360008301526111b381611177565b9050919050565b7f5374696c6c206c6f636b65640000000000000000000000000000000000000000600082015250565b60006111f0600c83610e8a565b91506111fb826111ba565b602082019050919050565b6000602082019050818103600083015261121f816111e3565b9050919050565b600060408201905061123b6000830185610dd9565b6112486020830184610bc8565b9392505050565b7f5265656e7472616e637947756172643a207265656e7472616e742063616c6c00600082015250565b6000611285601f83610e8a565b91506112908261124f565b602082019050919050565b600060208201905081810360008301526112b481611278565b905091905056fea26469706673582212208c2c01a67b4af03f305b88a3901592d26959b59b32cff55bc651e8a4b3a90f7c64736f6c63430008130033",
  "immutableReferences": {},
  "source": "//SPDX-License-Identifier: GPL-2.0-only\r\npragma solidity ^0.8.0;\r\nimport \"@openzeppelin/contracts/token/ERC20/IERC20.sol\";\r\nimport \"@openzeppelin/contracts/security/ReentrancyGuard.sol\";\r\n\r\n\r\ncontract ArbiLocker is ReentrancyGuard {\r\n\r\n    uint counter;\r\n\r\n    mapping (address => uint[]) public addressToIds;\r\n    mapping (uint => Safe) public idToSafe;\r\n\r\n    //each object created represents an amount of tokens locked in the contract\r\n    struct Safe {\r\n        address owner;\r\n        address token;\r\n        uint amount;\r\n        uint unlock;\r\n        bool active;\r\n    }\r\n\r\n    function deposit(address user, address token, uint amount, uint length) public nonReentrant returns(uint id) {\r\n        require(amount > 1000, \"Deposit too low\");\r\n        require(length > 0 && length < 10000, \"9999 days max lock\");\r\n        IERC20 lp = IERC20(token);\r\n        lp.transferFrom(msg.sender, address(this), amount);\r\n        Safe memory newSafe;\r\n        uint currentID = counter;\r\n        newSafe.owner = user;\r\n        newSafe.token = token;\r\n        newSafe.amount = amount;\r\n        newSafe.unlock = block.timestamp + (length * 1 days); \r\n        newSafe.active = true;\r\n        addressToIds[msg.sender].push(currentID);\r\n        idToSafe[currentID] = newSafe;\r\n        counter++;\r\n        return(currentID);\r\n    }\r\n\r\n    function unlock(uint id) public nonReentrant {\r\n        require(idToSafe[id].owner == msg.sender, \"Not the owner of this safe\");\r\n        require(idToSafe[id].unlock <= block.timestamp, \"Still locked\");\r\n        IERC20 lp = IERC20(idToSafe[id].token);\r\n        lp.transfer(msg.sender, idToSafe[id].amount);\r\n        idToSafe[id].amount = 0;\r\n        idToSafe[id].active = false;\r\n    }\r\n    \r\n    function getSafe(uint id) view public returns(Safe memory) {\r\n        Safe memory res = idToSafe[id];\r\n        return(res);\r\n    }\r\n    \r\n    function getIds(address user) view public returns(uint[] memory) {\r\n        uint total = addressToIds[user].length;\r\n        uint[] memory res = new uint[](total);\r\n        uint i;\r\n        uint ticker;\r\n        while(i < total) {\r\n            address _owner = idToSafe[ticker].owner;\r\n            if(_owner == msg.sender) { \r\n                res[i] = ticker; \r\n                i++; \r\n            }\r\n            ticker++;\r\n        }\r\n        return(res);\r\n    }\r\n}",
  "sourcePath": "C:\\HD\\FreeLocker\\contracts\\ArbiLocker.sol",
  "compiler": {
    "name": "solc",
    "version": "0.8.19+commit.7dd6d404.Emscripten.clang"
  },
  "schemaVersion": "3.4.3",
  "updatedAt": "2023-03-26T00:09:06.238Z",
  "devdoc": {
    "kind": "dev",
    "methods": {},
    "version": 1
  },
  "userdoc": {
    "kind": "user",
    "methods": {},
    "version": 1
  }
}